:060000000A128A11EB2F29
:100DA6007E088A007F0882000A128A11D3260A1258
:100DB6008A118000840A04087D0603190034FF0A9C
:100DC6000319FE0AD72EF200831203138715720841
:100DD60088000714FE30FF007F088705C330F10046
:100DE600CD30F000F00BF52EF10BF52E0800F200D9
:100DF600F730FF007F088312031387057208880007
:100E06000714FE30FF007F088705C330F100CD30A0
:100E1600F000F00B0C2FF10B0C2F08005634453464
:100E26004C344D34553452345534473441344E34B1
:100E3600003400340034003400340034003400340C
:100E460000340034003400340034003400340034FC
:100E560000340034003400340034003400340034EC
:100E660000340034003400340034003400340034DC
:100E760000340034003400340034003400340034CC
:100E860083160313870188018312031387018801E0
:100E960038300A128A11FA260A128A11C330F4006F
:100EA600CD30F300F30B552FF40B552F08300A12F3
:100EB6008A11FA260A128A11C330F400CD30F300E3
:100EC600F30B632FF40B632F01300A128A11FA26F3
:100ED6000A128A11C330F400CD30F300F30B712FE0
:100EE600F40B712F06300A128A11FA260A128A1199
:100EF600C330F400CD30F300F30B7F2FF40B7F2FBC
:100F06000C300A128A11FA260A128A11C330F4002A
:100F1600CD30F300F30B8D2FF40B8D2F08000A1242
:100F26008A1143270A128A1184300A128A11FA2674
:100F36000A128A11F501F6017508203E8400831312
:100F460000080A128A11E6260A128A110130F507EC
:100F56000318F60A0030F6077608803AFF0080305C
:100F66007F02031DB82F0A307502031CBB2FBC2F4E
:100F76009F2F04300A128A11FA260A128A11CE30DD
:100F86000A128A11FA260A128A11F501F601750863
:100F9600203E8400831300080A128A11E6260A12EC
:100FA6008A110130F5070318F60A0030F6077608AD
:100FB600803AFF0080307F02031DE32F0A3075025E
:100FC600031CE62FE72FCA2FE72F0A128A110028E3
:100FD60083135230FD000730FE001130FF00203031
:100FE60084000A128A11D7260A128A11F501F6011F
:0A0FF600F70183010A128A11922FFD
:02400E003B3F36
:00000001FF
