:060000000A128A11EC2F28
:10055C00F00070080800F00070080F39303E0800F9
:10056C00F50075080A128A11FE230A128A11080076
:10057C00F90079080A128A11D7240A128A11080084
:10058C00F90079080A128A11D7240A128A11080074
:10059C00F90079080A128A11D7240A128A11080064
:1005AC00F90079080A128A11D7240A128A11080054
:1005BC00F90079080A128A11D7240A128A11080044
:1005CC000A128A112E230A128A118316031391140C
:1005DC0008000A128A112E230A128A118316031399
:1005EC00111408000A128A112E230A128A1183167A
:1005FC00031311150800F90079080A128A11A224B4
:10060C000A128A113F390800F1007108F000043019
:10061C000310F00CFF3E031D0E2B7008303E08003B
:10062C008316031391120A128A112E230A128A11AD
:10063C0083160313111608008316031391160A125E
:10064C008A112E230A128A1183160313111608001D
:10065C00831603131419332B342B2E2B11081F392B
:10066C00031D392B3A2B2E2B0800831603138715E9
:10067C000716941714138312031394169415313020
:10068C008316031393000800F000701F4E2B4F2BA2
:10069C00572BF01E522B532B552B5030582B4130CF
:1006AC00582B003008007E088A007F0882000A124E
:1006BC008A1159230A128A118000840A04087D06C3
:1006CC0003190034FF0A0319FE0A5D2BF2007208AD
:1006DC00831203138800071787177F30FF007F08EA
:1006EC0087054130F100EE30F000F00B7B2BF10B65
:1006FC007B2B00000800F3008F2B7308840000088C
:10070C000A128A116C230A128A110130FF007F0829
:10071C00F3077308840083130008031D962B972B93
:10072C00832B0800F2007208831203138800BF3079
:10073C00FF007F08870587177F30FF007F0887053C
:10074C004130F100EE30F000F00BAA2BF10BAA2B8C
:10075C0000000800F000701FB42BB52BBD2B701ED1
:10076C00B82BB92BBB2B3130C82B3030C82BF01E1B
:10077C00C02BC12BC32B3230C82B701EC62BC72BE2
:10078C00BB2BB92B0800FA00503079060319CF2B7C
:10079C00D02BD52B4030FB000030FC00D92B603027
:1007AC00FB000030FC007B08FD007A080A128A115D
:1007BC00A2240A128A117D040800F600EA2B0A1200
:1007CC008A11E6220A128A117608FE390A128A1157
:1007DC00FE230A128A1170087104031DF62BF72BE5
:1007EC00E52B75080A128A11FE230A128A110800D9
:1007FC00F4000A128A112E230A128A117408831229
:10080C00031393000A128A112E230A128A11031061
:10081C0083160313111B0314003003180130F2006C
:10082C00F3017208F0007308F100080016341E344E
:10083C000C3403342134373408345034203420340D
:10084C002D34203420342D342034203420342034E2
:10085C000034203420342D34203420342D342034F2
:10086C002034003444344134543445343A34003464
:10087C00543449344D3445343A3400340A128A1114
:10088C002E230A128A118316031391150A128A1148
:10089C002E230A128A11831203138C1D562C572CEB
:1008AC00512C1308D8008C117008710403195F2C9B
:1008BC00602C662C0A128A1116230A128A116B2CD0
:1008CC000A128A1122230A128A118312031358085E
:1008DC000800F600762C0A128A11E6220A128A11F6
:1008EC007608FE390A128A11FE230A128A11700840
:1008FC007104031D822C832C712C75080A128A1129
:10090C00FE230A128A110A128A11E6220A128A118D
:10091C00942C0A128A11E6220A128A1176080138DE
:10092C000A128A11FE230A128A1170087104031D1F
:10093C00A02CA12C8F2C0800F80014307802031C7A
:10094C00A82CA92CBC2C0A30F0000030F10078083F
:10095C00F600F7017608F2007708F3000A128A1104
:10096C0065250A128A1170082038D62C0A307802B4
:10097C00031CC12CC22CD52C0A30F0000030F10025
:10098C007808F600F7017608F2007708F3000A12EF
:10099C008A1165250A128A1170081038D62C78082D
:1009AC000800F8000A30F0000030F10078088312DB
:1009BC000313C800C9014808F2004908F3000A12E1
:1009CC008A1165250A128A11700883120313CA0052
:1009DC007108CB000A30F0000030F1007808CC0030
:1009EC00CD014C08F2004D08F3000A128A112126A1
:1009FC000A128A11700883120313CE0003300310FD
:100A0C00CE0DFF3E031D052D03104E0D4A040800AC
:100A1C0083160313880183120313880183160313AF
:100A2C0007083F3987000C300A128A1198230A12E2
:100A3C008A114130F400EE30F300F30B232DF40B4C
:100A4C00232D000001300A128A1198230A128A11F0
:100A5C004130F400EE30F300F30B322DF40B322D59
:100A6C00000038300A128A1198230A128A11413078
:100A7C00F400EE30F300F30B412DF40B412D00008C
:100A8C0006300A128A1198230A128A114130F40096
:100A9C00EE30F300F30B502DF40B502D0000813091
:100AAC000A128A1198230A128A114130F400EE308E
:100ABC00F300F30B5F2DF40B5F2D00000800F50124
:100ACC00F31F692D6A2D712DF209F309F20A03192E
:100ADC00F30AF501F50AF11F742D752D7A2DF00925
:100AEC00F109F00A0319F10A7008710403197F2D3A
:100AFC00802DAF2DF401F40A8E2D01300310F00D72
:100B0C00F10DFF3E031D842D0130FF007F08F4071B
:100B1C00F11F912D922D832D71087302031D982DB9
:100B2C0070087202031C9B2D9C2DA22D7008F202E2
:100B3C007108031CF303F30201300310F10CF00CE9
:100B4C00FF3E031DA32D0130F402031DAE2DAF2D6E
:100B5C00922D75080319B32DB42DB92DF209F30993
:100B6C00F20A0319F30A7308F1007208F000080086
:100B7C000130F0000030F1000A128A1144240A12EC
:100B8C008A110130F0000030F1000A128A1144245D
:100B9C000A128A1183120313D70057080A128A11FA
:100BAC000A230A128A1183120313B30057080A127C
:100BBC008A11B1220A128A1183120313B400013074
:100BCC00F0000030F1000A128A1144240A128A1132
:100BDC0083120313D70057080A128A110A230A1228
:100BEC008A1183120313B60057080A128A11B12214
:100BFC000A128A1183120313B7000030F000F100BF
:100C0C000A128A1144240A128A1183120313D70080
:100C1C0057080A128A110A230A128A118312031323
:100C2C00B90057080A128A11B1220A128A118312CA
:100C3C000313BA000800F501F11F252E262E2D2EC8
:100C4C00F009F109F00A0319F10AF501F50AF31F8D
:100C5C00302E312E3A2EF209F309F20A0319F30A57
:100C6C000130FF007F08F506F601F70170087104EA
:100C7C000319412E422E792EF401F40A502E013024
:100C8C000310F00DF10DFF3E031D462E0130FF0049
:100C9C007F08F407F11F532E542E452E01300310FC
:100CAC00F60DF70DFF3E031D552E71087302031D43
:100CBC00612E70087202031C642E652E6C2E700857
:100CCC00F2027108031CF303F302761401300310D3
:100CDC00F10CF00CFF3E031D6D2E0130F402031DD0
:100CEC00782E792E542E750803197D2E7E2E832E88
:100CFC00F609F709F60A0319F70A7708F1007608DE
:100D0C00F00008000130F0000030F1000A128A11E6
:100D1C0044240A128A1183120313D70057080A12AB
:100D2C008A11B1220A128A1183120313AF005708D9
:100D3C000A128A110A230A128A1183120313AE00B3
:100D4C000130F0000030F1000A128A1144240A121A
:100D5C008A1183120313D70057080A128A11B12281
:100D6C000A128A1183120313AC0057080A128A1153
:100D7C000A230A128A1183120313AB000130F0000C
:100D8C000030F1000A128A1144240A128A118312CB
:100D9C000313D70057080A128A11B1220A128A11BA
:100DAC0083120313A90057080A128A11B0230A12DE
:100DBC008A1183120313A80057080A128A114A23B6
:100DCC000A128A11F20072080319ED2EEE2EF52E7E
:100DDC00720883120313B1004D30B200F92E720861
:100DEC0083120313B100080083120313D600F5011C
:100DFC00D0300A128A11E3230A128A1183120313C8
:100E0C0056080A128A11D6220A128A110A128A115B
:100E1C00B6220A128A11831203134F080A128A117E
:100E2C00C6220A128A110A128A11B6220A128A11D1
:100E3C008312031350080319242F252F332F500826
:100E4C00F90051080A128A11C9230A128A110A12CE
:100E5C008A11B6220A128A113E2F51080A128A11DF
:100E6C0001230A128A110A128A11B6220A128A1155
:100E7C008312031352080A128A11AE220A128A1123
:100E8C000A128A11B6220A128A1183120313550808
:100E9C000A128A11BE220A128A110A128A11B62269
:100EAC000A128A118312031353080A128A11CE22D2
:100EBC000A128A110A128A11B6220A128A11831294
:100ECC00031354080A128A11DE220A128A110A121A
:100EDC008A11B6220A128A1108000A128A113B23BF
:100EEC000A128A110A128A11EF220A128A11373059
:100EFC0083120313CF005030D0000830D1000330E0
:100F0C00D2000C30D3001E30D4001630D500213066
:100F1C000A128A11FA260A128A110A128A11F82266
:100F2C000A128A110A128A110E250A128A118030AD
:100F3C000A128A1198230A128A1142300A128A1153
:100F4C0081230A128A11C0300A128A1198230A12BC
:100F5C008A113C300A128A1181230A128A110A1250
:100F6C008A11EF220A128A11F501D0300A128A1165
:100F7C006F240A128A110A128A1188260A128A11FF
:100F8C000A128A11BE250A128A110A128A11F82233
:100F9C000A128A1185300A128A1198230A128A11B0
:100FAC0028300A128A1181230A128A11C5300A12BA
:100FBC008A1198230A128A1133300A128A1181235A
:100FCC000A128A11B52F0A128A110028831348308D
:100FDC00FD000430FE001C30FF00203084000A129B
:100FEC008A115D230A128A11D701D80183010A12D2
:040FFC008A11732FB4
:02400E003B3F36
:00000001FF
