:060000000A128A11FB2F19
:100F06000A128A1191270A128A110A128A11AC272B
:100F16000A128A11882F0A128A1100288030831635
:100F2600031386008312031386018030831603138E
:100F3600870083120313860120308316031398005B
:100F46009030831203139800093083160313990017
:100F56000800831203138C1EB12FB22FFA2F1A0822
:100F6600F200E12F61309900C330F100CD30F0007E
:100F7600F00BBB2FF10BBB2FF72F62309900C3305C
:100F8600F100CD30F000F00BC62FF10BC62FF72F76
:100F960063309900C330F100CD30F000F00BD12F53
:100FA600F10BD12FF72F64309900C330F100CD300B
:100FB600F000F00BDC2FF10BDC2FF72F7208F0009E
:100FC600F1017108003A0319E92FF72F7008413A29
:100FD6000319B52F033A0319C02F013A0319CB2F72
:100FE600073A0319D62FF72F831203138C12080022
:0A0FF600F20183010A128A11832F11
:02400E003B3F36
:00000001FF
