:060000000A128A11EA2F2A
:100AEE000A128A11AA250A128A1183160313911467
:100AFE0008000A128A11AA250A128A1183160313F4
:100B0E00111408000A128A11AA250A128A118316D4
:100B1E000313111508008316031391120A128A117A
:100B2E00AA250A128A1183160313111608008316BA
:100B3E00031391160A128A11AA250A128A11831614
:100B4E00031311160800831603131419AF2DB02DBD
:100B5E00AA2D11081F39031DB52DB62DAA2D08007B
:100B6E008316031387150716941714138312031392
:100B7E0094169415273083160313930008005734E8
:100B8E0072346934743465343A3400345234453432
:100B9E00413444343A34003449343234433400342A
:100BAE007E088A007F0882000A128A11D7250A124F
:100BBE008A118000840A04087D0603190034FF0A96
:100BCE000319FE0ADB2DF20072088312031388004C
:100BDE00071787177F30FF007F0887053430F10035
:100BEE00F130F000F00BF92DF10BF92DFE2D080070
:100BFE00F3000D2E7308840000080A128A11EA25EC
:100C0E000A128A110130FF007F08F307730884006F
:100C1E0083130008031D142E152E012E0800F2005A
:100C2E007208831203138800BF30FF007F08870508
:100C3E0087177F30FF007F0887053430F100F130D1
:100C4E00F000F00B282EF10B282E2D2E0800F400AC
:100C5E000A128A11AA250A128A1174088312031322
:100C6E0093000A128A11AA250A128A1103108316FA
:100C7E000313111B0314003003180130F200F301AB
:100C8E007208F0007308F10008000A128A11AA25F2
:100C9E000A128A118316031391150A128A11AA25B4
:100CAE000A128A11831203138C1D5E2E5F2E592E8B
:100CBE001308B1008C11700871040319672E682E89
:100CCE006E2E0A128A1192250A128A11732E0A1298
:100CDE008A119E250A128A11831203133108080005
:100CEE00F9007E2E0A128A1177250A128A117508CA
:100CFE00FE390A128A112E260A128A117008710400
:100D0E00031D8A2E8B2E792E00300A128A112E2662
:100D1E000A128A1176080A128A112E260A128A11CE
:100D2E00A42E7908840000080A128A112E260A12AF
:100D3E008A110130FF007F08F907790884008313B8
:100D4E000008031DAB2EAC2E982E3430F800F13077
:100D5E00F700F70BB02EF80BB02EB52E0800831649
:100D6E0003138801831203138801831603130708E4
:100D7E003F3987000C300A128A1116260A128A1180
:100D8E003430F400F130F300F30BCB2EF40BCB2EFA
:100D9E00D02E01300A128A1116260A128A11343008
:100DAE00F400F130F300F30BDA2EF40BDA2EDF2E13
:100DBE0038300A128A1116260A128A113430F400BB
:100DCE00F130F300F30BE92EF40BE92EEE2E063084
:100DDE000A128A1116260A128A113430F400F130E2
:100DEE00F300F30BF82EF40BF82EFD2E81300A12C1
:100DFE008A1116260A128A113430F400F130F300EB
:100E0E00F30B072FF40B072F0C2F0800FB00142FEA
:100E1E000A128A1177250A128A117708FE390A12E8
:100E2E008A112E260A128A1170087104031D202FB2
:100E3E00212F0F2F00300A128A112E260A128A1124
:100E4E0078080A128A112E260A128A110A128A119B
:100E5E0077250A128A11382F0A128A1177250A125B
:100E6E008A11770801380A128A112E260A128A115F
:100E7E0070087104031D442F452F332F7608FD0093
:100E8E007508FC00FD1F4C2F4D2F4E2F692F7B0830
:100E9E00F9007C08F90275087907FA007A088400CF
:100EAE007D08F1007C08F0000A128A114C260A1205
:100EBE008A1183138000FF30FC070318FD0AFF30F0
:100ECE00FD07492F75087B07F900790A8400831303
:100EDE00800108000A128A11B6260A128A11803081
:100EEE000A128A1116260A128A1127300A128A113C
:100EFE00FF250A128A11C0300A128A1116260A120A
:100F0E008A1120300A128A11FF250A128A110A123A
:100F1E008A11B7250A128A1186300A128A111626EC
:100F2E000A128A112D300A128A11FF250A128A110D
:100F3E000A128A1180250A128A11A030F50020307B
:100F4E00F6002D300A128A1177260A128A110A1219
:100F5E008A1189250A128A11033083120313B700EE
:100F6E000830B6007630B500B50BBB2FB60BBB2FD5
:100F7E00B70BBB2F00000A128A1180250A128A11A4
:100F8E000230F5000030F600A030F7002030F800F7
:100F9E0032300A128A110D270A128A110A128A1188
:100FAE0089250A128A11C6300A128A1116260A12C9
:100FBE008A1132300A128A11FF250A128A11E62F7F
:100FCE000A128A11002883133130FD000530FE000D
:100FDE00C630FF00203084000A128A11DB250A1267
:100FEE008A11B101B201B301B40183010A128A114F
:020FFE00712F51
:02400E003B3F36
:00000001FF
