:060000000A128A11EC2F28
:10002800F401F5017008710403191B281C285328D2
:10003800F601F60A2A2801300310F00DF10DFF3EF3
:10004800031D20280130FF007F08F607F11F2D2827
:100058002E281F2801300310F40DF50DFF3E031D57
:100068002F2871087302031D3B2870087202031CB5
:100078003E283F2846287008F2027108031CF30343
:10008800F302741401300310F10CF00CFF3E031D51
:1000980047280130F602031D522853282E287508D8
:1000A800F1007408F0000800831603138801870123
:1000B8008312031387018801013083160313850017
:1000C8008130831203139F008E30831603139F0021
:1000D80038300A128A1588270A128A11C330F400A8
:1000E800CD30F300F30B7628F40B762801300A1292
:1000F8008A1588270A128A11C330F400CD30F3001C
:10010800F30B8428F40B842806300A128A158827F2
:100118000A128A11C330F400CD30F300F30B922891
:10012800F40B92280C300A128A1588270A128A11B1
:10013800C330F400CD30F300F30BA028F40BA02853
:100148000800203084000630FF0083138001840AF1
:10015800FF0BA92883120313A601A701E6280A307A
:10016800F0000030F1007808F3007708F2000A1276
:100178008A15C6270A128A11831203132608F90062
:100188007907203E8400700883138000840A710870
:1001980080002608013EA60027080318013E003EFD
:1001A800A7000A30F0000030F1007808F300770863
:1001B800F2000A128A1114200A128A117108F80032
:1001C8007008F70077087804031DEB28EC28B3289B
:1001D800023083120313A8000030A9002808F90090
:1001E8007907203E840083130008303E0A128A15DE
:1001F80074270A128A11FF3083120313A807031801
:10020800A90AFF30A907A91F0A290B29F228563085
:100218000A128A1574270A128A1108000310831219
:100228000313560D570DDD005D08031D1C291D29FC
:1002380026290030D7000030D6000030D500003025
:10024800D40089295408D8005508D9005608DA007E
:100258005708DB001F300310DB0CDA0CD90CD80C64
:10026800FF3E031D2F295808DC00D617FF30D405A0
:10027800FF30D505FF30D6050030D7059630DD02B2
:10028800DD1F4729482962295D08803A973E0318EF
:100298004E294F2950291D2901300310D70CD60C9F
:1002A800D50CD40CFF3E031D51290130FF007F08F7
:1002B800DD07031D602961295029792920305D0255
:1002C800031C6729682974291D290130D8000310E7
:1002D800D40DD50DD60DD70DD80B6B290130DD0205
:1002E8005D08031D7829792969295C0803197D2986
:1002F8007E298929D409D509D609D709D40A031929
:10030800D50A0319D60A0319D70A08000A128A114E
:1003180058200A128A1180300A128A1588270A1270
:100328008A11831203131F151F199B299C299829C9
:100338001E08DE00DF015E08EC005F08ED00831692
:1003480003131E0883120313DE00DF015E08EA00B0
:100358005F08EB006C08DF00DE016A085E07E80052
:100368006B0803186B0A5F07E9006808F000690862
:10037800F100F201F30100300A128A1120220A1258
:100388008A11730883120313A7007208A600710864
:10039800A5007008A4004430A3007F30A200C0303C
:1003A800A1000030A0000A128A11D8220A128A116C
:1003B800831203132308C1002208C0002108BF00CC
:1003C8002008BE004230BD004030BC000030BB00F9
:1003D8000030BA000A128A11A7240A128A1183125D
:1003E80003133D08D7003C08D6003B08D5003A085F
:1003F800D4000A128A1112210A128A1183120313D5
:100408005508E7005408E6006708F8006608F70092
:100418000A128A11A5200A128A11C3308312031303
:10042800DF00CC30DE00DE0B172ADF0B172A0000B6
:100438008F290A128A110028F80078080319252A3A
:10044800262A3A2AF31F292A2A2A3A2A7009FA0060
:100458007109FB007209FC007309FD00FA0A03190F
:10046800FB0A0319FC0A0319FD0A422A7308FD0056
:100478007208FC007108FB007008FA007308720427
:1004880071047004031D492A4A2A532A0030F300D4
:100498000030F2000030F1000030F000D72A96302A
:1004A800F900632A0130FF007F08F90701300310C3
:1004B800FD0CFC0CFB0CFA0CFF3E031D5B2AFE3006
:1004C8007D05031D682A692A562A852A0130FF00FE
:1004D8007F08F9070130FA07003003180130FB07DD
:1004E800003003180130FC07003003180130FD0705
:1004F80001300310FD0CFC0CFB0CFA0CFF3E031D35
:100508007D2AFF307D05031D8A2A8B2A6A2A972AAD
:100518000130F9020130F4000310FA0DFB0DFC0D57
:10052800FD0DF40B902AFC1B9A2A9B2AA12A023063
:1005380079020318A02AA12A8C2A7918A42AA52AA4
:10054800AD2AFF30FA05FF30FB057F30FC05FF3090
:10055800FD050310F90C7908F400F501F601F7011F
:1005680018300310F40DF50DF60DF70DFF3E031DC1
:10057800B52A7408FA047508FB047608FC047708A1
:10058800FD0478080319C92ACA2ACF2AF31FCD2ADD
:10059800CE2ACF2AFD177D08F3007C08F2007B08DD
:1005A800F1007A08F0000800831203132708803945
:1005B800B1002708A8002807B800A61FE42AE52AE2
:1005C800E62A381438080319EA2AEB2AFB2A380ADB
:1005D800031DEF2AF02AF82A0030A7000030A600F1
:1005E8000030A5000030A400A617A701032B003097
:1005F800A7000030A6000030A5000030A4002308A2
:100608008039FF007F08B1062308A8002807B90031
:10061800A21F0F2B102B112B391439080319152B76
:10062800162B262B390A031D1A2B1B2B232B0030C4
:10063800A3000030A2000030A1000030A000A217E3
:10064800A3012E2B0030A3000030A2000030A1002F
:100658000030A0002308220421042004031D352BA8
:10066800362B4F2B0030A7000030A6000030A50025
:100678000030A4008030A6047F30A7043108FF00B2
:100688007F08A7042708A3002608A2002508A100C0
:100698002408A000A62C3808031D532B542B5D2BCF
:1006A8000030A3000030A2000030A1000030A000FC
:1006B800A62C3808A800A9012908AB003908280287
:1006C800AA00031CAB032A087F3EB2002B080318BC
:1006D800013E003EB3002708B0002608AF002508F9
:1006E800AE002408AD000030A7000030A60000309E
:1006F800A5000030A4000030B7000030B60000307C
:10070800B5000030B400B901D32B390803198D2B7B
:100718008E2BAE2B0130A8000310AD0DAE0DAF0D22
:10072800B00DA80B902B0130A8000310A40DA50D47
:10073800A60DA70DA80B992BB71FA32BA42BA52B90
:1007480024140130A8000310B40DB50DB60DB70D73
:10075800A80BA72B23083002031DBC2B22082F024D
:10076800031DBC2B21082E02031DBC2B20082D02C3
:10077800031CBF2BC02BCF2B37172008AD02210835
:10078800031C210FAE022208031C220FAF0223080C
:10079800031C230FB0020130FF007F08B9071A308D
:1007A8003902031CD82BD92B892B30082F042E048F
:1007B8002D040319E02BE12B002C3414002C0130FC
:1007C800A8000310A40DA50DA60DA70DA80BE52BD9
:1007D800B71FEF2BF02BF12B24140130A8000310C6
:1007E800B40DB50DB60DB70DA80BF32BFF30B2073E
:1007F8000318B30AFF30B307A61F032C042CE32BFE
:10080800B901B71F082C092C252CFF303405A80086
:10081800FF303505A900FF303605AA007F303705BF
:10082800AB002B082A042904280403191C2C1D2CAE
:10083800202CB901B90A252C241C232C242C252C66
:100848001D2C39080319292C2A2C5B2C0130A407EC
:10085800003003180130A507003003180130A6073F
:10086800003003180130A707271C3B2C3C2C5B2CBD
:100878002408A8002508A9002608AA002708AB0014
:100888000130AC002B0DAB0CAA0CA90CA80CAC0BBE
:10089800462C2B08A7002A08A6002908A500280826
:1008A800A4000130B2070318B30A0030B3073308B5
:1008B800803AFF0080307F02031D642CFF30320233
:1008C800031C672C682C762CFF3083120313B200AC
:1008D8000030B3000030A7000030A6000030A500AB
:1008E8000030A400831203133308803AFF008030DD
:1008F8007F02031D812C013032020318842C852CC1
:10090800922C83120313B201B3010030A700003008
:10091800A6000030A5000030A400B1018312031323
:100928003208B800381C992C9A2C9C2CA617A02C9D
:100938007F30FF007F08A6053808A8000310280CA0
:10094800A700422B0800831203133D088039C70013
:100958003D08C2004207CD00BC1FB32CB42CB52CF7
:100968004D144D080319B92CBA2CC92C4D0A031D76
:10097800BE2CBF2CC72C0030BD000030BC0000309E
:10098800BB000030BA00BC17D12C0030BD000030CD
:10099800BC000030BB000030BA0041088039FF00BD
:1009A8007F08C7064108C2004207CC00C01FDD2CE3
:1009B800DE2CDF2C4C144C080319E32CE42CF32C0C
:1009C8004C0A031DE82CE92CF12C0030C100003042
:1009D800C0000030BF000030BE00C017FB2C003044
:1009E800C1000030C0000030BF000030BE004C081D
:1009F8000319FF2C002D052D4D08031D042D052D71
:100A08000E2D0030BD000030BC000030BB000030AF
:100A1800BA00EB2F3A08F00040080A128A159F27FF
:100A28000A128A11710883120313D3007008D200C6
:100A38005208C200C301C401C5014508CB004408DF
:100A4800CA004308C9004208C8005308C200C301CD
:100A5800C401C5014508D1004408D0004308CF00AF
:100A68004208CE003B08F0003F080A128A159F276B
:100A78000A128A11710883120313D3007008D20076
:100A88005208C200C301C401C5014208C80743088F
:100A980003110318013E0319522DC9074408031115
:100AA8000318013E0319592DCA07450803110318F5
:100AB800013E0319602DCB075308C200C301C401CE
:100AC800C5014208CE07430803110318013E031964
:100AD8006E2DCF07440803110318013E0319752D25
:100AE800D007450803110318013E03197C2DD107CF
:100AF8003C08F0003E080A128A159F270A128A113C
:100B0800710883120313D3007008D2005208C20080
:100B1800C301C401C5014208C807430803110318EB
:100B2800013E0319982DC907440803110318013E13
:100B380003199F2DCA07450803110318013E03191D
:100B4800A62DCB075308C200C301C401C501420842
:100B5800CE07430803110318013E0319B42DCF072C
:100B6800440803110318013E0319BB2DD00745089B
:100B780003110318013E0319C22DD1070830C20022
:100B88000310C80DC90DCA0DCB0DC20BC42D3B08EF
:100B9800F0003E080A128A159F270A128A11710866
:100BA80083120313D3007008D2005208C2005308FE
:100BB800C300C401C5014208C8074308031103184C
:100BC800013E0319E82DC907440803110318013E23
:100BD8000319EF2DCA07450803110318013E03192D
:100BE800F62DCB073A08F0003F080A128A159F270E
:100BF8000A128A11710883120313D3007008D200F5
:100C08005208C2005308C300C401C5014208C807FE
:100C1800430803110318013E0319132EC90744089A
:100C280003110318013E03191A2ECA0745080311B8
:100C38000318013E0319212ECB070830C200031008
:100C4800C80DC90DCA0DCB0DC20B232E3A08F000F2
:100C58003E080A128A159F270A128A117108831200
:100C68000313D3007008D2005208C2005308C3000F
:100C7800C401C5014208C807430803110318013E0F
:100C88000319472EC907440803110318013E031925
:100C98004E2ECA07450803110318013E0319552EA5
:100CA800CB073B08F00040080A128A159F270A1252
:100CB8008A11710883120313D3007008D2005208F6
:100CC800C2005308C300C401C5014208CE07430847
:100CD80003110318013E0319722ECF0744080311AC
:100CE8000318013E0319792ED0074508031103188C
:100CF800013E0319802ED1073C08F0003F080A1274
:100D08008A159F270A128A11710883120313D300C8
:100D18007008D2005208C2005308C300C401C501BC
:100D28004208CE07430803110318013E03199D2EFC
:100D3800CF07440803110318013E0319A42ED00756
:100D4800450803110318013E0319AB2ED1073C08CF
:100D5800F00040080A128A159F270A128A117108A2
:100D680083120313D3007008D2005208C20053083C
:100D7800C300C401C50108300310C20DC30DC40D62
:100D8800C50DFF3E031DC02E4208CE0743080311C0
:100D98000318013E0319D12ECF0744080311031885
:100DA800013E0319D82ED007450803110318013E48
:100DB8000319DF2ED1074808C2004908C3004A08B2
:100DC800C4004B08C50018300310C50CC40CC30C74
:100DD800C20CFF3E031DE82E4208CE07430803114C
:100DE8000318013E0319F92ECF074408031103180D
:100DF800013E0319002FD007450803110318013ECF
:100E08000319072FD1070830C2000310C80DC90DF8
:100E1800CA0DCB0DC20B092F4D084C07C200C301E8
:100E2800C30D4208823ED20043080318013EFF3E2C
:100E3800D3003B2F0130C2000310CE0DCF0DD00DD3
:100E4800D10DC20B202FCB1F2A2F2B2F2C2F4E1446
:100E58000130C2000310C80DC90DCA0DCB0DC20B5D
:100E68002E2FFF30D2070318D30AFF30D307D01F25
:100E78003E2F3F2F1E2FCC01CB1F432F442F602F17
:100E8800FF304805C200FF304905C300FF304A055E
:100E9800C4007F304B05C5004508440443044204A0
:100EA8000319572F582F5B2FCC01CC0A602F4E1CEB
:100EB8005E2F5F2F602F582F4C080319642F652F62
:100EC800962F0130CE07003003180130CF070030CD
:100ED80003180130D007003003180130D107511C26
:100EE800762F772F962F4E08C2004F08C300500860
:100EF800C4005108C5000130C600450DC50CC40C1E
:100F0800C30CC20CC60B812F4508D1004408D00081
:100F18004308CF004208CE000130D2070318D30A95
:100F28000030D3075308803AFF0080307F02031D4A
:100F38009F2FFF305202031CA22FA32FAE2F7F300A
:100F480083120313D1008030D0000030CF0000306E
:100F5800CE00DF2F831203135308803AFF0080303E
:100F68007F02031DB92F013052020318BC2FBD2F79
:100F7800C92F003083120313D1000030D000003095
:100F8800CF000030CE00C701DF2F831203135208B1
:100F9800CD00FF30CE05FF30CF057F30D0050030C3
:100FA800D1054D1CD82FD92FDA2FD0174D08C200E4
:100FB8000310420CD1004708FF007F08D1045108F4
:100FC800BD005008BC004F08BB004E08BA0008001E
:100FD80083120313E001E101E201E301E401E50109
:100FE800E601E701E801E901EA01EB01EC01ED01A5
:080FF80083010A128A118A2903
:101EE800F200831203138715720888000714FE3066
:101EF800FF007F088705C330F100CD30F000F00BFC
:101F0800832FF10B832F0800F200F730FF007F08C2
:101F1800831203138705720888000714FE30FF0038
:101F28007F088705C330F100CD30F000F00B9A2F01
:101F3800F10B9A2F0800F800F401F5017008F2007F
:101F4800F3017208F6007308F700781CAC2FAD2F68
:101F5800B32F7608F4070318F50A7708F507013058
:101F68000310F60DF70DFF3E031DB42F0310F80CF8
:101F78007808031DC02FC12FA92F7508F100740818
:101F8800F0000800700871040319CB2FCC2FFB2F29
:101F9800F401F40ADA2F01300310F00DF10DFF3EC1
:101FA800031DD02F0130FF007F08F407F11FDD2F3C
:101FB800DE2FCF2F71087302031DE42F7008720201
:101FC800031CE72FE82FEE2F7008F2027108031C9C
:101FD800F303F30201300310F10CF00CFF3E031D74
:101FE800EF2F0130F402031DFA2FFB2FDE2F7308A9
:081FF800F1007208F00008007E
:02400E003B3F36
:00000001FF
