:060000000A128A11C02F54
:100ED8000734003406340034813400348734003455
:100EE800863400347E088A007F0882000A128A113C
:100EF80076270A128A118000840A04087D060319DD
:100F08000034FF0A0319FE0A7A2FF0308316031300
:100F18008600870183120313860187017830FF005A
:100F28007F0883160313810583120608FC00A72F88
:100F380030308700982F10308700982F2030870096
:100F4800982F8701982F7C08FA00FB017B08003A4C
:100F58000319AF2FA52F7A08703A0319A52FC03AA5
:100F68000319A22F603A03199F2F303A03199C2FB7
:100F7800A52F0A128A1100280A128A116C270A1250
:100F88008A11F0000A128A116D270A128A11F100DB
:100F98000A128A116E270A128A11F2000A128A119D
:100FA8006F270A128A11F3000A128A1170270A128F
:100FB8008A11F4000A128A1171270A128A11F5009F
:100FC8000A128A1172270A128A11F6000A128A1165
:100FD80073270A128A11F7000A128A1174270A1253
:100FE8008A11F8000A128A1175270A128A11F90063
:080FF80083010A128A11892FFE
:02400E003B3F36
:00000001FF
