:060000000A128A11FC2F18
:100F6200BD308316031387004030831203138700BA
:100F72000330F2004930F1006630F000F00BBF2F71
:100F8200F10BBF2FF20BBF2F000083120313870157
:100F92000330F2004930F1006630F000F00BCF2F41
:100FA200F10BCF2FF20BCF2F00000230831203136D
:100FB20087000330F2004930F1006630F000F00B98
:100FC200E02FF10BE02FF20BE02F000042308312F2
:100FD200031387000330F2004930F1006630F0005D
:100FE200F00BF12FF10BF12FF20BF12F0000B52FC7
:0E0FF2000A128A11002883010A128A11B12FF7
:02400E003B3F36
:00000001FF
