:060000000A128A11FA2F1A
:100D18000A128A116D270A128A110A128A111727D4
:100D28000A128A110A128A11CA260A128A11912EE7
:100D38000A128A110028F20083120313071472089A
:100D480088008714FD30FF007F088705C330F10055
:100D5800CD30F000F00BAE2EF10BAE2E0800F200F5
:100D6800FE30FF007F08831203138705720888008E
:100D78008714FD30FF007F088705C330F100CD30B0
:100D8800F000F00BC52EF10BC52E080083120313DB
:100D98008C1ECF2ED02E162F1A08F600C3300A123A
:100DA8008A11B3260A128A11FD2E61300A128A119D
:100DB8009F260A128A11C330F400CD30F300F30BDA
:100DC800E32EF40BE32E132F62300A128A119F26AA
:100DD8000A128A11DF2E63300A128A119F260A121C
:100DE8008A11DF2E64300A128A119F260A128A118C
:100DF800DF2E7608F300F4017408003A0319052F72
:100E0800132F7308613A0319D92E033A0319E82EF0
:100E1800013A0319EF2E073A0319F62E132F8312FE
:100E280003138C120800831203130608F50083309D
:100E38000A128A11B3260A128A11562F41308312D8
:100E48000313990041300A128A119F260A128A1147
:100E5800C330F400CD30F300F30B302FF40B302FF8
:100E68006C2F423083120313990042300A128A1100
:100E78009F260A128A112C2F4330831203139900DC
:100E880043300A128A119F260A128A112C2F4430E5
:100E980083120313990044300A128A119F260A12FA
:100EA8008A112C2F7508F300F4017408003A03190D
:100EB8005E2F6C2F7308703A03194B2FC03A031931
:100EC800402F603A0319352F303A0319222F6C2F1F
:100ED8000800831603138801F03086008312031379
:100EE8008601880187017F30FF007F08831603137E
:100EF80081058030870020309800903083120313DA
:100F08009800093083160313990038300A128A11A1
:100F1800B3260A128A11C330F400CD30F300F30B64
:100F2800932FF40B932F38300A128A11B3260A1222
:100F38008A11C330F400CD30F300F30BA12FF40B6A
:100F4800A12F06300A128A11B3260A128A11C33059
:100F5800F400CD30F300F30BAF2FF40BAF2F0C30B0
:100F68000A128A11B3260A128A11C330F400CD304E
:100F7800F300F30BBD2FF40BBD2F80300A128A113A
:100F8800B3260A128A11C330F400CD30F300F30BF4
:100F9800CB2FF40BCB2F54300A128A119F260A123A
:100FA8008A1158300A128A119F260A128A113A3079
:100FB8000A128A119F260A128A11C0300A128A114F
:100FC800B3260A128A1152300A128A119F260A126F
:100FD8008A1158300A128A119F260A128A113A3049
:100FE8000A128A119F260A128A110800F501F601D1
:080FF80083010A128A118C2EFC
:02400E003B3F36
:00000001FF
