:060000000A128A11E42F30
:100012003034303430347008710403191128122836
:100022004128F401F40A202801300310F00DF10DEB
:10003200FF3E031D16280130FF007F08F407F11F61
:1000420023282428152871087302031D2A28700802
:100052007202031C2D282E2834287008F20271081F
:10006200031CF303F30201300310F10CF00CFF3E0A
:10007200031D35280130F402031D4028412824289D
:100082007308F1007208F0000800043083160313AD
:100092008500870188019130831203139F0002308B
:1000A200831603139F0038300A128A157E270A121C
:1000B2008A11C330F400CD30F300F30B5E28F40B49
:1000C2005E2801300A128A157E270A128A11C3306D
:1000D200F400CD30F300F30B6C28F40B6C280630DF
:1000E2000A128A157E270A128A11C330F400CD3013
:1000F200F300F30B7A28F40B7A280C300A128A15D3
:100102007E270A128A11C330F400CD30F300F30BBC
:100112008828F40B882880300A128A156A270A1266
:100122008A110800831203136808A0006908A1005D
:100132006A08A200A301A401CF2883120313230893
:10014200203E84000A30F0000030F1007808F3000D
:100152007708F2000A128A110C200A128A1170081A
:10016200303E83138000831203132308013EA30051
:1001720024080318013E003EA4000A30F0000030BB
:10018200F1007808F3007708F2000A128A15BC27FA
:100192000A128A117108F8007008F70077087804CB
:1001A200031DD428D5289E28023083120313A500EC
:1001B2000030A6002508203E8400831300080A129E
:1001C2008A156A270A128A11FF3083120313A507C0
:1001D2000318A60AFF30A607A61FF028F128DB287D
:1001E20056300A128A156A270A128A110800031069
:1001F20083120313560D570DDD005D08031D0229FE
:1002020003290C290030D7000030D6000030D50079
:100212000030D4006F295408D8005508D900560878
:10022200DA005708DB001F300310DB0CDA0CD90CA4
:10023200D80CFF3E031D15295808DC00D617FF30E5
:10024200D405FF30D505FF30D6050030D7059630EE
:10025200DD02DD1F2D292E2948295D08803A973EAF
:100262000318342935293629032901300310D70C04
:10027200D60CD50CD40CFF3E031D37290130FF00EC
:100282007F08DD07031D4629472936295F292030CB
:100292005D02031C4D294E295A2903290130D80039
:1002A2000310D40DD50DD60DD70DD80B5129013021
:1002B200DD025D08031D5E295F294F295C080319D1
:1002C200632964296F29D409D509D609D709D40A23
:1002D2000319D50A0319D60A0319D70A08000A1204
:1002E2008A1146200A128A1180300A128A157E2744
:1002F2000A128A11831203131F151F1981298229D9
:100302007E291E08DE00DF015E08E6005F08E700C6
:10031200831603131E0883120313DE00DF015E0837
:10032200E4005F08E5006508DF006408DE000630CF
:100332000310DF0CDE0CFF3E031D99296708E10064
:100342006608E0000310E00DE10D0310E00DE10D81
:100352005E086007E2005F0803185F0A6107E300B6
:100362006208F0006308F100F201F30100300A12A2
:100372008A1118220A128A11730883120313A70022
:100382007208A6007108A5007008A4004430A300FA
:100392007F30A200C030A1000030A0000A128A11F2
:1003A200D0220A128A11831203132308C1002208E1
:1003B200C0002108BF002008BE004230BD00C83086
:1003C200BC000030BB000030BA000A128A119F2420
:1003D2000A128A11831203133D08D7003C08D60083
:1003E2003B08D5003A08D4000A128A11F8200A12F2
:1003F2008A11831203135508E3005408E2006308CC
:10040200F8006208F7000A128A1193200A128A1170
:10041200C33083120313DF00CC30DE00DE0B0F2A61
:10042200DF0B0F2A000075290A128A110028F80032
:10043200780803191D2A1E2A322AF31F212A222A8A
:10044200322A7009FA007109FB007209FC00730973
:10045200FD00FA0A0319FB0A0319FC0A0319FD0A33
:100462003A2A7308FD007208FC007108FB0070084C
:10047200FA007308720471047004031D412A422AAF
:100482004B2A0030F3000030F2000030F10000305F
:10049200F000CF2A9630F9005B2A0130FF007F0876
:1004A200F90701300310FD0CFC0CFB0CFA0CFF3EAB
:1004B200031D532AFE307D05031D602A612A4E2A40
:1004C2007D2A0130FF007F08F9070130FA0700306A
:1004D20003180130FB07003003180130FC0700301D
:1004E20003180130FD0701300310FD0CFC0CFB0C5E
:1004F200FA0CFF3E031D752AFF307D05031D822A7B
:10050200832A622A8F2A0130F9020130F400031093
:10051200FA0DFB0DFC0DFD0DF40B882AFC1B922A33
:10052200932A992A023079020318982A992A842A4E
:1005320079189C2A9D2AA52AFF30FA05FF30FB056F
:100542007F30FC05FF30FD050310F90C7908F4003B
:10055200F501F601F70118300310F40DF50DF60D53
:10056200F70DFF3E031DAD2A7408FA047508FB045B
:100572007608FC047708FD0478080319C12AC22A08
:10058200C72AF31FC52AC62AC72AFD177D08F3000A
:100592007C08F2007B08F1007A08F0000800831260
:1005A200031327088039B1002708A8002807B800DC
:1005B200A61FDC2ADD2ADE2A381438080319E22AAB
:1005C200E32AF32A380A031DE72AE82AF02A003030
:1005D200A7000030A6000030A5000030A400A61736
:1005E200A701FB2A0030A7000030A6000030A500BA
:1005F2000030A40023088039FF007F08B1062308D9
:10060200A8002807B900A21F072B082B092B3914B1
:10061200390803190D2B0E2B1E2B390A031D122B21
:10062200132B1B2B0030A3000030A2000030A100CE
:100632000030A000A217A301262B0030A300003037
:10064200A2000030A1000030A000230822042104EF
:100652002004031D2D2B2E2B472B0030A70000302A
:10066200A6000030A5000030A4008030A6047F3030
:10067200A7043108FF007F08A7042708A300260863
:10068200A2002508A1002408A0009E2C3808031D02
:100692004B2B4C2B552B0030A3000030A200003016
:1006A200A1000030A0009E2C3808A800A90129084A
:1006B200AB0039082802AA00031CAB032A087F3EBC
:1006C200B2002B080318013E003EB3002708B00019
:1006D2002608AF002508AE002408AD000030A700B0
:1006E2000030A6000030A5000030A4000030B700A2
:1006F2000030B6000030B5000030B400B901CB2B99
:1007020039080319852B862BA62B0130A80003106C
:10071200AD0DAE0DAF0DB00DA80B882B0130A800AA
:100722000310A40DA50DA60DA70DA80B912BB71FA5
:100732009B2B9C2B9D2B24140130A8000310B40D7D
:10074200B50DB60DB70DA80B9F2B23083002031D64
:10075200B42B22082F02031DB42B21082E02031DE5
:10076200B42B20082D02031CB72BB82BC72B37172D
:100772002008AD022108031C210FAE022208031C2F
:10078200220FAF022308031C230FB0020130FF0027
:100792007F08B9071A303902031CD02BD12B812BC9
:1007A20030082F042E042D040319D82BD92BF82B33
:1007B2003414F82B0130A8000310A40DA50DA60DCA
:1007C200A70DA80BDD2BB71FE72BE82BE92B241471
:1007D2000130A8000310B40DB50DB60DB70DA80B6E
:1007E200EB2BFF30B2070318B30AFF30B307A61F83
:1007F200FB2BFC2BDB2BB901B71F002C012C1D2C72
:10080200FF303405A800FF303505A900FF3036055A
:10081200AA007F303705AB002B082A0429042804DC
:100822000319142C152C182CB901B90A1D2C241CDF
:100832001B2C1C2C1D2C152C39080319212C222CA5
:10084200532C0130A407003003180130A5070030F3
:1008520003180130A607003003180130A707271C30
:10086200332C342C532C2408A8002508A900260870
:10087200AA002708AB000130AC002B0DAB0CAA0C70
:10088200A90CA80CAC0B3E2C2B08A7002A08A6002A
:100892002908A5002808A4000130B2070318B30AEA
:1008A2000030B3073308803AFF0080307F02031D17
:1008B2005C2CFF303202031C5F2C602C6E2CFF304C
:1008C20083120313B2000030B3000030A7000030DF
:1008D200A6000030A5000030A400831203133308E1
:1008E200803AFF0080307F02031D792C01303202F2
:1008F20003187C2C7D2C8A2C83120313B201B301C2
:100902000030A7000030A6000030A5000030A4008F
:10091200B101831203133208B800381C912C922CB7
:10092200942CA617982C7F30FF007F08A605380864
:10093200A8000310280CA7003A2B08008312031307
:100942003D088039C7003D08C2004207CD00BC1FE8
:10095200AB2CAC2CAD2C4D144D080319B12CB22C80
:10096200C12C4D0A031DB62CB72CBF2C0030BD0084
:100972000030BC000030BB000030BA00BC17C92CEC
:100982000030BD000030BC000030BB000030BA00B7
:1009920041088039FF007F08C7064108C2004207AC
:1009A200CC00C01FD52CD62CD72C4C144C080319C4
:1009B200DB2CDC2CEB2C4C0A031DE02CE12CE92C6B
:1009C2000030C1000030C0000030BF000030BE0067
:1009D200C017F32C0030C1000030C0000030BF004F
:1009E2000030BE004C080319F72CF82CFD2C4D08E2
:1009F200031DFC2CFD2C062D0030BD000030BC0078
:100A02000030BB000030BA00E32F3A08F000400883
:100A12000A128A1595270A128A1171088312031382
:100A2200D3007008D2005208C200C301C401C5013C
:100A32004508CB004408CA004308C9004208C80060
:100A42005308C200C301C401C5014508D1004408CE
:100A5200D0004308CF004208CE003B08F0003F0818
:100A62000A128A1595270A128A1171088312031332
:100A7200D3007008D2005208C200C301C401C501EC
:100A82004208C807430803110318013E03194A2DFF
:100A9200C907440803110318013E0319512DCA075F
:100AA200450803110318013E0319582DCB075308BB
:100AB200C200C301C401C5014208CE0743080311A5
:100AC2000318013E0319662DCF07440803110318CA
:100AD200013E03196D2DD007450803110318013E8D
:100AE2000319742DD1073C08F0003E080A128A153A
:100AF20095270A128A11710883120313D300700812
:100B0200D2005208C200C301C401C5014208C8078D
:100B1200430803110318013E0319902DC907440825
:100B220003110318013E0319972DCA074508031143
:100B32000318013E03199E2DCB075308C200C301BF
:100B4200C401C5014208CE07430803110318013E40
:100B52000319AC2DCF07440803110318013E0319F2
:100B6200B32DD007450803110318013E0319BA2D0E
:100B7200D1070830C2000310C80DC90DCA0DCB0D34
:100B8200C20BBC2D3B08F0003E080A128A159527BD
:100B92000A128A11710883120313D3007008D2005B
:100BA2005208C2005308C300C401C5014208C80765
:100BB200430803110318013E0319E02DC907440835
:100BC20003110318013E0319E72DCA074508031153
:100BD2000318013E0319EE2DCB073A08F0003F0837
:100BE2000A128A1595270A128A11710883120313B1
:100BF200D3007008D2005208C2005308C300C401D7
:100C0200C5014208C807430803110318013E03192E
:100C12000B2EC907440803110318013E0319122EB3
:100C2200CA07450803110318013E0319192ECB0701
:100C32000830C2000310C80DC90DCA0DCB0DC20B7E
:100C42001B2E3A08F0003E080A128A1595270A124E
:100C52008A11710883120313D3007008D20052085C
:100C6200C2005308C300C401C5014208C8074308B3
:100C720003110318013E03193F2EC907440803114B
:100C82000318013E0319462ECA074508031103182B
:100C9200013E03194D2ECB073B08F00040080A1213
:100CA2008A1595270A128A11710883120313D30039
:100CB2007008D2005208C2005308C300C401C50123
:100CC2004208CE07430803110318013E03196A2E96
:100CD200CF07440803110318013E0319712ED007F0
:100CE200450803110318013E0319782ED1073C0869
:100CF200F0003F080A128A1595270A128A11710814
:100D020083120313D3007008D2005208C2005308A2
:100D1200C300C401C5014208CE07430803110318EA
:100D2200013E0319952ECF07440803110318013E13
:100D320003199C2ED007450803110318013E03191D
:100D4200A32ED1073C08F00040080A128A15952705
:100D52000A128A11710883120313D3007008D20099
:100D62005208C2005308C300C401C5010830031071
:100D7200C20DC30DC40DC50DFF3E031DB82E4208A2
:100D8200CE07430803110318013E0319C92ECF07EA
:100D9200440803110318013E0319D02ED007450859
:100DA20003110318013E0319D72ED1074808C200C8
:100DB2004908C3004A08C4004B08C5001830031094
:100DC200C50CC40CC30CC20CFF3E031DE02E42082E
:100DD200CE07430803110318013E0319F12ECF0772
:100DE200440803110318013E0319F82ED0074508E1
:100DF20003110318013E0319FF2ED1070830C20068
:100E02000310C80DC90DCA0DCB0DC20B012F4D0821
:100E12004C07C200C301C30D4208823ED200430800
:100E22000318013EFF3ED300332F0130C2000310EE
:100E3200CE0DCF0DD00DD10DC20B182FCB1F222FEF
:100E4200232F242F4E140130C2000310C80DC90DE8
:100E5200CA0DCB0DC20B262FFF30D2070318D30ABF
:100E6200FF30D307D01F362F372F162FCC01CB1FC1
:100E72003B2F3C2F582FFF304805C200FF30490559
:100E8200C300FF304A05C4007F304B05C50045084A
:100E920044044304420403194F2F502F532FCC0113
:100EA200CC0A582F4E1C562F572F582F502F4C0814
:100EB20003195C2F5D2F8E2F0130CE0700300318EF
:100EC2000130CF07003003180130D007003003187B
:100ED2000130D107511C6E2F6F2F8E2F4E08C2008A
:100EE2004F08C3005008C4005108C5000130C600B5
:100EF200450DC50CC40CC30CC20CC60B792F45089A
:100F0200D1004408D0004308CF004208CE0001308F
:100F1200D2070318D30A0030D3075308803AFF00E0
:100F220080307F02031D972FFF305202031C9A2F3D
:100F32009B2FA62F7F3083120313D1008030D00065
:100F42000030CF000030CE00D72F83120313530896
:100F5200803AFF0080307F02031DB12F0130520220
:100F62000318B42FB52FC12F003083120313D10001
:100F72000030D0000030CF000030CE00C701D72FA4
:100F8200831203135208CD00FF30CE05FF30CF0588
:100F92007F30D0050030D1054D1CD02FD12FD22F5C
:100FA200D0174D08C2000310420CD1004708FF00C1
:100FB2007F08D1045108BD005008BC004F08BB0097
:100FC2004E08BA0008000A128A1109200A128A1170
:100FD200E8000A128A110A200A128A11E9000A128A
:100FE2008A110B200A128A11EA00E201E301E401EC
:0E0FF200E501E601E70183010A128A11702968
:101ED400F200831203138715720888000714FE307A
:101EE400FF007F088705C330F100CD30F000F00B10
:101EF400792FF10B792F0800F200F730FF007F08EB
:101F0400831203138705720888000714FE30FF004C
:101F14007F088705C330F100CD30F000F00B902F1F
:101F2400F10B902F0800F800F401F5017008F2009D
:101F3400F3017208F6007308F700781CA22FA32F90
:101F4400A92F7608F4070318F50A7708F507013076
:101F54000310F60DF70DFF3E031DAA2F0310F80C16
:101F64007808031DB62FB72F9F2F7508F10074084A
:101F7400F0000800F401F501700871040319C32F7F
:101F8400C42FFB2FF601F60AD22F01300310F00DF7
:101F9400F10DFF3E031DC82F0130FF007F08F60737
:101FA400F11FD52FD62FC72F01300310F40DF50DD7
:101FB400FF3E031DD72F71087302031DE32F700822
:101FC4007202031CE62FE72FEE2F7008F20271084D
:101FD400031CF303F302741401300310F10CF00C2E
:101FE400FF3E031DEF2F0130F602031DFA2FFB2FD6
:0C1FF400D62F7508F1007408F0000800FA
:02400E003B3F36
:00000001FF
