:060000000A128A11FC2F18
:100F20000A128A119E270A128A110A128A11BC27F4
:100F30000A128A11952F0A128A110028FD30831691
:100F4000031387008312031387010C309D002E309A
:100F500083160313920006308312031392000930A4
:100F6000F5002030F4001C30F3002030F2002A306D
:100F7000F1001030F00008007508831203139B0085
:100F80001D080F3974049D001730F800D530F700A4
:100F90001630F600F60BCA2FF70BCA2FF80BCA2F24
:100FA00000007308831203139B001D080F3972049D
:100FB0009D001730F800D530F7001630F600F60B1C
:100FC000DF2FF70BDF2FF80BDF2F000071088312E4
:100FD00003139B001D080F3970049D001730F800A3
:100FE000D530F7001630F600F60BF42FF70BF42F80
:100FF000F80BF42F0000080083010A128A11902FC9
:02400E003B3F36
:00000001FF
