:060000000A128A11ED2F27
:100CAC003A34503452344534533453344534443448
:100CBC0000348316031388018312031388018316EF
:100CCC00031307083F39870008000A128A115F26B0
:100CDC000A128A110A128A11BC260A128A110A12E5
:100CEC008A1127270A128A11752E0A128A110028D6
:100CFC007E088A007F0882000A128A117E260A1258
:100D0C008A118000840A04087D0603190034FF0A46
:100D1C000319FE0A822EF200720883120313880054
:100D2C00071787177F30FF007F0887052730F100F2
:100D3C00F530F000F00BA02EF10BA02E0800F20005
:100D4C007208831203138800BF30FF007F088705E9
:100D5C0087177F30FF007F0887052730F100F530BB
:100D6C00F000F00BB72EF10BB72E0800831603130F
:100D7C0087018801831203138801F0308316031353
:100D8C00860083120313860187010C300A128A1124
:100D9C00A5260A128A112730F400F530F300F30B64
:100DAC00D52EF40BD52E01300A128A11A5260A1263
:100DBC008A112730F400F530F300F30BE32EF40B1B
:100DCC00E32E38300A128A11A5260A128A1127300E
:100DDC00F400F530F300F30BF12EF40BF12E06308A
:100DEC000A128A11A5260A128A112730F400F5304E
:100DFC00F300F30BFF2EF40BFF2E81300A128A1135
:100E0C00A5260A128A112730F400F530F300F30BF3
:100E1C000D2FF40B0D2FF5017508203E8400831364
:100E2C0000080A128A1191260A128A110130FF0059
:100E3C007F08F50709307502031C252F262F122F6A
:100E4C0008008312031306158610061080300A1250
:100E5C008A11A5260A128A11831203130608F600BA
:100E6C00532F31300A128A1191260A128A116A2FD5
:100E7C0034300A128A1191260A128A116A2F3730DD
:100E8C000A128A1191260A128A116A2F2A300A1222
:100E9C008A1191260A128A116A2F7608F039F3000A
:100EAC00F4017408003A03195C2F6A2F7308103A86
:100EBC000319372F303A03193E2F603A0319452F87
:100ECC00C03A03194C2F6A2F831203138614061190
:100EDC0006100608F60080300A128A11A5260A129E
:100EEC008A11942F32300A128A1191260A128A1111
:100EFC00AB2F35300A128A1191260A128A11AB2FA8
:100F0C0038300A128A1191260A128A11AB2F30300E
:100F1C000A128A1191260A128A11AB2F7608F0391F
:100F2C00F300F4017408003A03199D2FAB2F7308DA
:100F3C00103A0319782F303A03197F2F603A0319AE
:100F4C00862FC03A03198D2FAB2F8312031306146F
:100F5C00861006110608F60080300A128A11A526A2
:100F6C000A128A11D52F33300A128A1191260A12CD
:100F7C008A11EC2F36300A128A1191260A128A1124
:100F8C00EC2F39300A128A1191260A128A11EC2F91
:100F9C0023300A128A1191260A128A11EC2F760834
:100FAC00F039F300F4017408003A0319DE2FEC2F2A
:100FBC007308103A0319B92F303A0319C02F603A4D
:100FCC000319C72FC03A0319CE2FEC2F0800831337
:100FDC002930FD000630FE005630FF002030840022
:100FEC000A128A1182260A128A11F60183010A1248
:040FFC008A116B2EBD
:02400E003B3F36
:00000001FF
