:060000000A128A11E12F33
:1009A40053344534543420345334503444343A3476
:1009B4002034203420342034523450344D34003424
:1009C4007E088A007F0882000A128A11E2240A1231
:1009D4008A118000840A04087D0603190034FF0A82
:1009E4000319FE0AE62CF20083120313871572081A
:1009F40088000714FE30FF007F088705C330F1002C
:100A0400CD30F000F00B042DF10B042D0800F200A2
:100A1400F730FF007F0883120313870572088800EC
:100A24000714FE30FF007F088705C330F100CD3086
:100A3400F000F00B1B2DF10B1B2D08000A128A117C
:100A44005E250A128A110A128A11BA250A128A111B
:100A5400C33083120313C800CC30C700C70B302D3A
:100A6400C80B302D0000252D0A128A110028F4012C
:100A7400F501701C3E2D3F2D452D7208F407031817
:100A8400F50A7308F50701300310F20DF30DFF3E6C
:100A9400031D462D01300310F10CF00CFF3E031D25
:100AA4004D2D70087104031D582D592D3B2D7508CB
:100AB400F1007408F000080083160313870188010D
:100AC400F030860083120313860188017F30FF0013
:100AD4007F0883160313810538300A128A11092509
:100AE4000A128A111430F4007930F300F30B782DD4
:100AF400F40B782D7D2D08300A128A1109250A126B
:100B04008A111430F4007930F300F30B872DF40BC1
:100B1400872D8C2D01300A128A1109250A128A1197
:100B24001430F4007930F300F30B962DF40B962D6A
:100B34009B2D06300A128A1109250A128A111430D3
:100B4400F4007930F300F30BA52DF40BA52DAA2D99
:100B54000C300A128A1109250A128A111430F40081
:100B64007930F300F30BB42DF40BB42DB92D080038
:100B7400831203130608BC00052E0A128A11832669
:100B84000A128A111B2E3908803AFF0080307F0236
:100B9400031DCE2D323038020318D12DD22D1B2E39
:100BA400013083120313B8070318B90A0030B907D8
:100BB4003908BE003808BD000A128A11F1260A124B
:100BC4008A111B2E3908803AFF0080307F02031DF2
:100BD400ED2D01303802031CF02DF12D1B2EFF30BA
:100BE40083120313B8070318B90AFF30B907DA2DC3
:100BF400B801B9010030BD00BE000A128A11F12605
:100C04000A128A111B2E3C08C500C6014608003A88
:100C140003190D2E1B2E4508703A0319FA2DC03AFC
:100C24000319E42D603A0319C52D303A0319BF2D79
:100C34001B2E0800FB01F71F202E212E282EF6095B
:100C4400F709F60A0319F70AFB01FB0AF91F2B2E11
:100C54002C2E352EF809F909F80A0319F90A01307E
:100C6400FF007F08FB06FC01FD01760877040319E9
:100C74003C2E3D2E742EFA01FA0A4B2E013003103D
:100C8400F60DF70DFF3E031D412E0130FF007F08D6
:100C9400FA07F71F4E2E4F2E402E01300310FC0D85
:100CA400FD0DFF3E031D502E77087902031D5C2EB7
:100CB40076087802031C5F2E602E672E7608F802F1
:100CC4007708031CF903F9027C1401300310F70CB4
:100CD400F60CFF3E031D682E0130FA02031D732E2D
:100CE400742E4F2E7B080319782E792E7E2EFC0944
:100CF400FD09FC0A0319FD0A7D08F7007C08F600CB
:100D0400080080300A128A1109250A128A118312F6
:100D14000313BA01BB01831203133A08203E840073
:100D2400831300080A128A11F5240A128A11013069
:100D340083120313BA070318BB0A0030BB073B082E
:100D4400803AFF0080307F02031DAA2E08303A0249
:100D5400031CAD2EAE2E8D2EBD2E30300A128A11FC
:100D6400F5240A128A11013083120313BA070318F7
:100D7400BB0A0030BB07831203133B08803AFF0011
:100D840080307F02031DC82E0C303A02031CCB2E88
:100D9400CC2EAF2EE12E831203133A08203E84009A
:100DA400831300080A128A11F5240A128A110130E9
:100DB40083120313BA070318BB0A0030BB0783125C
:100DC40003133B08803AFF0080307F02031DEC2EA2
:100DD4000F303A02031CEF2EF02ECD2E0800E8301F
:100DE400F6000330F700831203133E08F9003D08B0
:100DF400F8000A128A111C260A128A117708831233
:100E04000313B7007608B6006430F6000030F7002C
:100E14003708F1003608F0001830F200FC30F30017
:100E24000A128A1139250A128A11831203133D0802
:100E34007007F8003E0803183E0A7107F9000A1209
:100E44008A111C260A128A11770883120313B5002B
:100E54007608B4000A30F6000030F7003708F100D5
:100E64003608F0001830F200FC30F3000A128A1140
:100E740039250A128A11700883120313BF007108FE
:100E8400C0003508F1003408F0009C30F200FF3057
:100E9400F3000A128A1139250A128A117008831282
:100EA40003133F07C10071080318710A4007C20009
:100EB4003D084107F8003E0803183E0A4207F900BE
:100EC4000A128A111C260A128A1177088312031344
:100ED400B3007608B2003708F1003608F000183085
:100EE400F200FC30F3000A128A1139250A128A1121
:100EF400700883120313BF007108C0003508F100A5
:100F04003408F0009C30F200FF30F3000A128A111A
:100F140039250A128A117008831203133F07C1008E
:100F240071080318710A4007C2003308F10032083F
:100F3400F000F630F200FF30F3000A128A1139256E
:100F44000A128A117008831203134107C30071083F
:100F54000318710A4207C4003D084307B0003E0865
:100F640003183E0A4407B10088300A128A11092581
:100F74000A128A11831203133608303E0A128A11A8
:100F8400F5240A128A11831203133408303E0A121C
:100F94008A11F5240A128A11831203133208303E8F
:100FA4000A128A11F5240A128A11831203133008D3
:100FB400303E0A128A11F5240A128A11080083139A
:100FC4003030FD000430FE00D230FF0020308400B9
:100FD4000A128A11E6240A128A11B001B101B2017F
:100FE400B301B401B501B601B701B801B901BA0141
:0C0FF400BB01BC0183010A128A11202DF0
:02400E00BB3FB6
:00000001FF
