:060000000A128A11DE2F36
:100B5C00D0340734C834003430343D342D342B3485
:100B6C007E088A007F0882000A128A11B6250A12B2
:100B7C008A118000840A04087D0603190034FF0AD8
:100B8C000319FE0ABA2DF20083120313871572089B
:100B9C0088000714FE30FF007F088705C330F10082
:100BAC00CD30F000F00BD82DF10BD82D0800F41F30
:100BBC00E02DE12DE22DF32D7308203E84008313EC
:100BCC0000080A128A11C9250A128A11FF30F3078C
:100BDC000318F40AFF30F407DD2D0800F200F7309B
:100BEC00FF007F088312031387057208880007141F
:100BFC00FE30FF007F088705C330F100CD30F000D8
:100C0C00F00B062EF10B062E0800F401F501701CFA
:100C1C00102E112E172E7208F4070318F50A7308FC
:100C2C00F50701300310F20DF30DFF3E031D182ED6
:100C3C0001300310F10CF00CFF3E031D1F2E700849
:100C4C007104031D2A2E2B2E0D2E7508F10074082D
:100C5C00F0000800831603138701880138300A124C
:100C6C008A11F4250A128A11C330F400CD30F30036
:100C7C00F30B3E2EF40B3E2E08300A128A11F4258B
:100C8C000A128A11C330F400CD30F300F30B4C2E52
:100C9C00F40B4C2E01300A128A11F4250A128A1117
:100CAC00C330F400CD30F300F30B5A2EF40B5A2E54
:100CBC0006300A128A11F4250A128A11C330F40084
:100CCC00CD30F300F30B682EF40B682E0C300A12A7
:100CDC008A11F4250A128A11C330F400CD30F300C6
:100CEC00F30B762EF40B762E08000A128A1130269E
:100CFC000A128A1180300A128A11F4250A128A11FA
:100D0C00C830F8000030F9000A128A11CC260A12F9
:100D1C008A112D300A128A11C9250A128A11D03073
:100D2C00F8000730F9000A128A11CC260A128A112F
:100D3C00F830FC00F830FD003D300A128A11C9254C
:100D4C000A128A112D300A128A11C9250A128A1127
:100D5C00FF30F000FF30F1007D08F3007C08F2005A
:100D6C000A128A110B260A128A117108FD007008EA
:100D7C00FC007D08F9007C08F8000A128A11CC26C8
:100D8C000A128A11C82E0A128A1100287908FB004F
:100D9C007808FA0083120313AC01AD01062F0A3058
:100DAC00F0000030F1007B08F3007A08F2000A1220
:100DBC008A111E270A128A117108F9007008F800AE
:100DCC00831203132C08203E84007808303E8313D2
:100DDC0080000130AC070318AD0A0030AD070A30B3
:100DEC00F0000030F1007B08F3007A08F2000A12E0
:100DFC008A1177270A128A117108FB007008FA0011
:100E0C007A087B04031D0B2F0C2FD52EFF30831279
:100E1C000313AC070318AD0AFF30AD072D08F4001F
:100E2C002C08F3000A128A11DD250A128A11080017
:100E3C00F501F31F222F232F2A2FF209F309F20AAF
:100E4C000319F30AF501F50AF11F2D2F2E2F332F5D
:100E5C00F009F109F00A0319F10A70087104031979
:100E6C00382F392F682FF401F40A472F0130031063
:100E7C00F00DF10DFF3E031D3D2F0130FF007F08EB
:100E8C00F407F11F4A2F4B2F3C2F71087302031DDF
:100E9C00512F70087202031C542F552F5B2F7008B2
:100EAC00F2027108031CF303F30201300310F10C7E
:100EBC00F00CFF3E031D5C2F0130F402031D672F65
:100ECC00682F4B2F750803196C2F6D2F722FF20999
:100EDC00F309F20A0319F30A7308F1007208F0001F
:100EEC000800F501F11F7B2F7C2F832FF009F109EE
:100EFC00F00A0319F10AF501F50AF31F862F872F63
:100F0C00902FF209F309F20A0319F30A0130FF00DA
:100F1C007F08F506F601F701700871040319972F85
:100F2C00982FCF2FF401F40AA62F01300310F00DE7
:100F3C00F10DFF3E031D9C2F0130FF007F08F407CD
:100F4C00F11FA92FAA2F9B2F01300310F60DF70DBF
:100F5C00FF3E031DAB2F71087302031DB72F7008E2
:100F6C007202031CBA2FBB2FC22F7008F202710839
:100F7C00031CF303F302761401300310F10CF00C94
:100F8C00FF3E031DC32F0130F402031DCE2FCF2FC4
:100F9C00AA2F75080319D32FD42FD92FF609F709C7
:100FAC00F60A0319F70A7708F1007608F000080032
:100FBC0083133630FD000530FE00AE30FF002E30BE
:100FCC0084000A128A11BA250A128A11A001A10101
:100FDC00A201A301A401A501A601A701A801A901D1
:100FEC00AA01AB01AC01AD01FC01FD0183010A12A8
:040FFC008A117B2EAD
:02400E003B3F36
:00000001FF
